:1000000001308A001F290000FF00030E8301A100B8
:100010007F08A0000A08A7008A01A00E0408A20019
:100020007708A3007808A4007908A5007A08A6003C
:10003000831383128B1E1E280B192F28220884007D
:100040002308F7002408F8002508F9002608FA001C
:1000500027088A00210E8300FF0E7F0E0900CE3094
:100060008100CB08031D38284A08303C0318A22819
:100070004B084F02031CA228031D42284E084A02C7
:100080000318A228831605100130831285064A083A
:100090000139D600D701560B6D28D708031D6D28EE
:1000A000CC0A4C081F3C0318692803104C0CF03E86
:1000B000F7000310770DD6004C0801395607283E8B
:1000C000840083138008031D692883160511831299
:1000D000051583168514A02883124A080139D60015
:1000E000D701D608031D9F28D708031D9F284C0859
:1000F0001F3C031C9B2883168514831285189528A2
:1001000003104C0C4802031D8828D208031D9528B3
:1001100003104C0CF7000310770DD6004C08013982
:100120005607283E840083138001831685108510AE
:10013000831285149F2883160511831205118316D7
:10014000FF2883124F084B02031CE728031DAC282D
:100150004E084A02031CE7284B085102031CE728FB
:10016000031DB62850084A020318E7288316051015
:100170000130831285064A080139D600D701560B93
:10018000D828D708031DD8284808F7004D08F800DC
:100190000319CE280310F70CF80BCA287708013989
:1001A000031DD6288316051183120515CD03E628F5
:1001B0004A080139D600D701D608031DE628D7081A
:1001C000031DE6288316051183120511FE28500829
:1001D0004A02031DFE2851084B02031DFE28831608
:1001E000051083120514FF30CB00CA00CC00831623
:1001F00085108510831285140330CD008316831279
:10020000CA0A0319CB0A0B118A111E2883168113FF
:1002100083126229553084008313000803191E29B4
:100220000130F800F701F70B1329F80B12294A30B7
:10023000F700F70B19291C29800B10290800030867
:100240001F39830083168E158312C8014808C90020
:10025000CB01CA01FF30CC000330CD00CF01B1305B
:10026000CE00D101B930D0000130D20007309F005C
:100270008313D30153080F3C031C4F290310530D64
:10028000283E84008313013080000310530D013E8B
:10029000283E8400831301308000D30A3A290030BD
:1002A000831685008510831285148316051083122A
:1002B0000514831605118312051107308316860075
:1002C0008312062983168611831286118316060867
:1002D000031D6E298611831286158316043083123E
:1002E000D400FA30D5000A21D40B712983160108F5
:1002F000C73908388100C03083128B048B16CE308A
:10030000810006189029061C83293230D5000A2165
:10031000D2014808C90048080E3C0318C80ACF2972
:1003200006199E29061D92293230D5000A21D201D4
:100330004808C900C808031DC803CF298618CF295B
:10034000861CA0293230D5000A210130D20048088D
:1003500049020318B3290310480D283E8400831373
:1003600001308000CF29490848020318C029031032
:10037000480D013E283E8400831301308000CF29C0
:100380000310480D283E84008313013080000310C1
:10039000480D013E283E84008313013080008129EE
:0203A0006300F8
:02400E00503F21
:00000001FF
;PIC16F628A
;CRC=2233  CREATED="10-Feb-25 12:48"
