:1000000000308A0076280000FF00030E8301A10063
:100010007F08A0000A08A7008A01A00E0408A20019
:100020007708A3007808A4007908A5007A08A6003C
:10003000831383128B1E1E280B192F28220884007D
:100040002308F7002408F8002508F9002608FA001C
:1000500027088A00210E8300FF0E7F0E09006A30F8
:1000600081002E08023C031D3E28FF30A900A80095
:100070000330B2003108B000B1015E28AE08031DA4
:100080004628AC01AB010130AE005E282E0B5E2885
:1000900008302B02B7002C08B8000030031C0130D8
:1000A000B802380CFA00370CF900FA0CF90CFA0C0B
:1000B000F90C7908AA00AD010230AE000B118A11CB
:1000C0001E28363084008313000803197528013078
:1000D000F800F701F70B6A28F80B69284A30F70097
:1000E000F70B70287328800B6728080003081F3956
:1000F000830083168E15FF308312A900FF30A800FD
:10010000AA01AC01AB010130AD000230AE00AF017D
:10011000B001B1010330B20007309F008313831692
:100120000514851385138312851383160513051390
:100130008312051383160511051183120511831609
:100140008514F03086008601831286000030861BFD
:100150000130F700770DAF00AF0DAF0DF830AF05F0
:100160000030061B0130F700F70DF70DFC30F705E6
:100170007708AF040030861A0130F7000310F70D3E
:100180007708AF040030061A0130AF04F030831650
:100190008600861486150108C03903388100C030F6
:1001A00083128B048B160430B500FA30B600612040
:1001B000B50BD5280430B500FA30B6006120B50B78
:1001C000DC280430B500FA30B6006120B50BE32816
:1001D0000430B500FA30B6006120B50BEA280430CF
:1001E000B500FA30B6006120B50BF1286A30810005
:1001F000AE01B4010518B40AAD0803190E29B30104
:100200000518B30A3308340203190B296A30810038
:10021000AB0A0319AC0A3308B400FC28B301051873
:10022000B30A33083402031917296A308100B4086D
:1002300003195429B308031D5429A80A0319A90A4C
:1002400003102A0DA908031D50292802031850295C
:100250000310290CFA00280CF9002F02031D4F2966
:1002600028080139B500B601B508031D4529B608AF
:10027000031D4529861844292F08300203194429F3
:1002800083160511831205154F2986194F292F084A
:10029000300203194F2983160511831205155329BE
:1002A000831685148312CF29B408031DCF29B30800
:1002B0000319CF2903102A0DA908031D622928025A
:1002C000031CB029003085180130F7003208F8000F
:1002D00003196E290310F70DF80B6A297708B1048A
:1002E000B20303102A0DFF3EA908031D7A29280234
:1002F000031C7F2983168510851083128514031033
:10030000290CB600280CB5002A083502F70036087B
:10031000FA000030031C0130FA0277082F02031D97
:10032000AF2928080139B500B601B508031DA72972
:10033000B608031DA729851C9F298513A0298517A9
:10034000831685138510851083128514AF29851CAB
:10035000AB290513AC290517831605138312B4299D
:1003600083160511831205110310290CB600280C01
:10037000B5000130B5070318B60A2A083502F700A0
:100380003608FA000030031C0130FA0277082F0209
:10039000031DCF2983168510851083128514330819
:0603A000B4000E29630009
:02400E00503F21
:00000001FF
;PIC16F628A
;CRC=AAD3  CREATED="10-Feb-25 12:28"
